{
  "contractName": "Election",
  "abi": [
    {
      "inputs": [],
      "payable": false,
      "stateMutability": "nonpayable",
      "type": "constructor"
    },
    {
      "anonymous": false,
      "inputs": [
        {
          "indexed": false,
          "internalType": "uint256",
          "name": "_candidateId",
          "type": "uint256"
        }
      ],
      "name": "votedEvent",
      "type": "event"
    },
    {
      "constant": true,
      "inputs": [],
      "name": "candidate",
      "outputs": [
        {
          "internalType": "string",
          "name": "",
          "type": "string"
        }
      ],
      "payable": false,
      "stateMutability": "view",
      "type": "function"
    },
    {
      "constant": true,
      "inputs": [],
      "name": "candidateCount",
      "outputs": [
        {
          "internalType": "uint256",
          "name": "",
          "type": "uint256"
        }
      ],
      "payable": false,
      "stateMutability": "view",
      "type": "function"
    },
    {
      "constant": true,
      "inputs": [
        {
          "internalType": "uint256",
          "name": "",
          "type": "uint256"
        }
      ],
      "name": "candidates",
      "outputs": [
        {
          "internalType": "uint256",
          "name": "id",
          "type": "uint256"
        },
        {
          "internalType": "string",
          "name": "name",
          "type": "string"
        },
        {
          "internalType": "uint256",
          "name": "voteCount",
          "type": "uint256"
        }
      ],
      "payable": false,
      "stateMutability": "view",
      "type": "function"
    },
    {
      "constant": true,
      "inputs": [],
      "name": "closingTime",
      "outputs": [
        {
          "internalType": "uint256",
          "name": "",
          "type": "uint256"
        }
      ],
      "payable": false,
      "stateMutability": "view",
      "type": "function"
    },
    {
      "constant": true,
      "inputs": [
        {
          "internalType": "address",
          "name": "",
          "type": "address"
        }
      ],
      "name": "voters",
      "outputs": [
        {
          "internalType": "bool",
          "name": "",
          "type": "bool"
        }
      ],
      "payable": false,
      "stateMutability": "view",
      "type": "function"
    },
    {
      "constant": true,
      "inputs": [],
      "name": "deadline",
      "outputs": [
        {
          "internalType": "bool",
          "name": "",
          "type": "bool"
        }
      ],
      "payable": false,
      "stateMutability": "view",
      "type": "function"
    },
    {
      "constant": false,
      "inputs": [
        {
          "internalType": "uint256",
          "name": "_candidateId",
          "type": "uint256"
        }
      ],
      "name": "vote",
      "outputs": [],
      "payable": false,
      "stateMutability": "nonpayable",
      "type": "function"
    }
  ],
  "bytecode": "0x6080604052635e73eb6060035534801561001857600080fd5b5061005d6040518060400160405280600b81526020017f43616e64696461746520310000000000000000000000000000000000000000008152506100a660201b60201c565b6100a16040518060400160405280600b81526020017f43616e64696461746520320000000000000000000000000000000000000000008152506100a660201b60201c565b6101c7565b600460008154809291906001019190505550604051806060016040528060045481526020018281526020016000815250600160006004548152602001908152602001600020600082015181600001556020820151816001019080519060200190610111929190610122565b506040820151816002015590505050565b828054600181600116156101000203166002900490600052602060002090601f016020900481019282601f1061016357805160ff1916838001178555610191565b82800160010185558215610191579182015b82811115610190578251825591602001919060010190610175565b5b50905061019e91906101a2565b5090565b6101c491905b808211156101c05760008160009055506001016101a8565b5090565b90565b6105aa806101d66000396000f3fe608060405234801561001057600080fd5b506004361061007d5760003560e01c80634b6753bc1161005b5780634b6753bc146101875780636c8381f8146101a5578063a3ec138d14610228578063a9a981a3146102845761007d565b80630121b93f1461008257806329dcb0cf146100b05780633477ee2e146100d2575b600080fd5b6100ae6004803603602081101561009857600080fd5b81019080803590602001909291905050506102a2565b005b6100b86103dd565b604051808215151515815260200191505060405180910390f35b6100fe600480360360208110156100e857600080fd5b81019080803590602001909291905050506103e9565b6040518084815260200180602001838152602001828103825284818151815260200191508051906020019080838360005b8381101561014a57808201518184015260208101905061012f565b50505050905090810190601f1680156101775780820380516001836020036101000a031916815260200191505b5094505050505060405180910390f35b61018f6104ab565b6040518082815260200191505060405180910390f35b6101ad6104b1565b6040518080602001828103825283818151815260200191508051906020019080838360005b838110156101ed5780820151818401526020810190506101d2565b50505050905090810190601f16801561021a5780820380516001836020036101000a031916815260200191505b509250505060405180910390f35b61026a6004803603602081101561023e57600080fd5b81019080803573ffffffffffffffffffffffffffffffffffffffff16906020019092919050505061054f565b604051808215151515815260200191505060405180910390f35b61028c61056f565b6040518082815260200191505060405180910390f35b6102aa6103dd565b6102b357600080fd5b600260003373ffffffffffffffffffffffffffffffffffffffff1673ffffffffffffffffffffffffffffffffffffffff16815260200190815260200160002060009054906101000a900460ff161561030a57600080fd5b60008111801561031c57506004548111155b61032557600080fd5b6001600260003373ffffffffffffffffffffffffffffffffffffffff1673ffffffffffffffffffffffffffffffffffffffff16815260200190815260200160002060006101000a81548160ff02191690831515021790555060016000828152602001908152602001600020600201600081548092919060010191905055507ffff3c900d938d21d0990d786e819f29b8d05c1ef587b462b939609625b684b16816040518082815260200191505060405180910390a150565b60006003544210905090565b6001602052806000526040600020600091509050806000015490806001018054600181600116156101000203166002900480601f01602080910402602001604051908101604052809291908181526020018280546001816001161561010002031660029004801561049b5780601f106104705761010080835404028352916020019161049b565b820191906000526020600020905b81548152906001019060200180831161047e57829003601f168201915b5050505050908060020154905083565b60035481565b60008054600181600116156101000203166002900480601f0160208091040260200160405190810160405280929190818152602001828054600181600116156101000203166002900480156105475780601f1061051c57610100808354040283529160200191610547565b820191906000526020600020905b81548152906001019060200180831161052a57829003601f168201915b505050505081565b60026020528060005260406000206000915054906101000a900460ff1681565b6004548156fea265627a7a72315820afa2bca88ff8aed336a3ceb1779268498e000f442eff0ac0855c10557016f84e64736f6c63430005100032",
  "source": "pragma solidity ^0.5.16;\n\ncontract Election {\n\t\n\tstring public candidate;\n\t//constructor to store and read a candidate name\n\tconstructor () public{\n\t\taddCandidate(\"Candidate 1\");\n\t\taddCandidate(\"Candidate 2\");\n\t}\n\n\t//model candidate\n\tstruct Candidate{\n\t\tuint id;\n\t\tstring name;\n\t\tuint voteCount;\n\t}\n\n\t//store candidate using mapping\n\tmapping(uint => Candidate) public candidates;\n\t//store accounts that have voted\n\tmapping (address => bool) public voters;\n\t//timestamp when the vote is casted (block created)\n\tuint256 public closingTime = 1584655200;\n\n\t//count candidates\n\tuint public candidateCount;\n\n\t//uint year, month, day, hour, minute, second;\n\t\n\n\t//voted event\n\tevent votedEvent(uint _candidateId);\n\t\n\tfunction addCandidate (string memory _name) private {\n\t\tcandidateCount++;\n\t\tcandidates[candidateCount] = Candidate(candidateCount, _name, 0);\n\t}\n\n\tfunction deadline() public view returns (bool) {\n    \treturn now < closingTime;\n\t}\n\n\tfunction vote (uint _candidateId) public {\n\t\t// to check that the person has not voted before\n\n\t\t// if(1584658800 <= now){\n\t\t// \t\trequire(!voters[msg.sender]);\n\n\t\t// \t\t// require a valid candidate\n\t\t// \t\trequire(_candidateId > 0 && _candidateId <= candidateCount);\n\t\t\n\t\t// \t\t//to record that voter has voted\n\t\t// \t\tvoters[msg.sender] = true;\n\t\t\n\t\t// \t\t//updating vote count\n\t\t// \t\tcandidates[_candidateId].voteCount ++;\n    \n\t\t// \t\t//trigger voted event\n\t\t// \t\temit votedEvent(_candidateId);\n\t\t// }\n\t\trequire(deadline());\n\t\trequire(!voters[msg.sender]);\n\n\t\t// require a valid candidate\n\t\trequire(_candidateId > 0 && _candidateId <= candidateCount);\n\t\t\n\t\t//to record that voter has voted\n\t\tvoters[msg.sender] = true;\n\t\t\n\t\t//updating vote count\n\t\tcandidates[_candidateId].voteCount ++;\n    \n\t\t//trigger voted event\n\t\temit votedEvent(_candidateId);\n\t}\n\n}\n\n// 1 == 1 seconds\n// 1 minutes == 60 seconds\n// 1 hours == 60 minutes\n// 1 days == 24 hours\n// 1 weeks == 7 days\n// 1 years == 365 days",
  "sourcePath": "/home/rutu/voting_blockchain/contracts/Election.sol",
  "compiler": {
    "name": "solc",
    "version": "0.5.16+commit.9c3226ce.Emscripten.clang"
  },
  "schemaVersion": "3.0.23",
  "updatedAt": "2020-03-19T17:00:48.529Z",
  "networkType": "ethereum",
  "devdoc": {
    "methods": {}
  },
  "userdoc": {
    "methods": {}
  }
}